{
  "_format": "hh-sol-artifact-1",
  "contractName": "Exchange",
  "sourceName": "contracts/Exchange.sol",
  "abi": [
    {
      "inputs": [
        {
          "internalType": "address",
          "name": "_token",
          "type": "address"
        }
      ],
      "stateMutability": "nonpayable",
      "type": "constructor"
    },
    {
      "anonymous": false,
      "inputs": [
        {
          "indexed": true,
          "internalType": "address",
          "name": "owner",
          "type": "address"
        },
        {
          "indexed": true,
          "internalType": "address",
          "name": "spender",
          "type": "address"
        },
        {
          "indexed": false,
          "internalType": "uint256",
          "name": "value",
          "type": "uint256"
        }
      ],
      "name": "Approval",
      "type": "event"
    },
    {
      "anonymous": false,
      "inputs": [
        {
          "indexed": true,
          "internalType": "address",
          "name": "from",
          "type": "address"
        },
        {
          "indexed": true,
          "internalType": "address",
          "name": "to",
          "type": "address"
        },
        {
          "indexed": false,
          "internalType": "uint256",
          "name": "value",
          "type": "uint256"
        }
      ],
      "name": "Transfer",
      "type": "event"
    },
    {
      "inputs": [
        {
          "internalType": "uint256",
          "name": "_tokenAmount",
          "type": "uint256"
        }
      ],
      "name": "addLiquidity",
      "outputs": [
        {
          "internalType": "uint256",
          "name": "",
          "type": "uint256"
        }
      ],
      "stateMutability": "payable",
      "type": "function"
    },
    {
      "inputs": [
        {
          "internalType": "address",
          "name": "owner",
          "type": "address"
        },
        {
          "internalType": "address",
          "name": "spender",
          "type": "address"
        }
      ],
      "name": "allowance",
      "outputs": [
        {
          "internalType": "uint256",
          "name": "",
          "type": "uint256"
        }
      ],
      "stateMutability": "view",
      "type": "function"
    },
    {
      "inputs": [
        {
          "internalType": "address",
          "name": "spender",
          "type": "address"
        },
        {
          "internalType": "uint256",
          "name": "amount",
          "type": "uint256"
        }
      ],
      "name": "approve",
      "outputs": [
        {
          "internalType": "bool",
          "name": "",
          "type": "bool"
        }
      ],
      "stateMutability": "nonpayable",
      "type": "function"
    },
    {
      "inputs": [
        {
          "internalType": "address",
          "name": "account",
          "type": "address"
        }
      ],
      "name": "balanceOf",
      "outputs": [
        {
          "internalType": "uint256",
          "name": "",
          "type": "uint256"
        }
      ],
      "stateMutability": "view",
      "type": "function"
    },
    {
      "inputs": [],
      "name": "decimals",
      "outputs": [
        {
          "internalType": "uint8",
          "name": "",
          "type": "uint8"
        }
      ],
      "stateMutability": "view",
      "type": "function"
    },
    {
      "inputs": [
        {
          "internalType": "address",
          "name": "spender",
          "type": "address"
        },
        {
          "internalType": "uint256",
          "name": "subtractedValue",
          "type": "uint256"
        }
      ],
      "name": "decreaseAllowance",
      "outputs": [
        {
          "internalType": "bool",
          "name": "",
          "type": "bool"
        }
      ],
      "stateMutability": "nonpayable",
      "type": "function"
    },
    {
      "inputs": [
        {
          "internalType": "uint256",
          "name": "_minTokens",
          "type": "uint256"
        }
      ],
      "name": "ethToTokenSwap",
      "outputs": [],
      "stateMutability": "payable",
      "type": "function"
    },
    {
      "inputs": [
        {
          "internalType": "uint256",
          "name": "_minTokens",
          "type": "uint256"
        },
        {
          "internalType": "address",
          "name": "_recipient",
          "type": "address"
        }
      ],
      "name": "ethToTokenTransfer",
      "outputs": [],
      "stateMutability": "payable",
      "type": "function"
    },
    {
      "inputs": [],
      "name": "factoryAddress",
      "outputs": [
        {
          "internalType": "address",
          "name": "",
          "type": "address"
        }
      ],
      "stateMutability": "view",
      "type": "function"
    },
    {
      "inputs": [
        {
          "internalType": "uint256",
          "name": "_tokenSold",
          "type": "uint256"
        }
      ],
      "name": "getEthAmount",
      "outputs": [
        {
          "internalType": "uint256",
          "name": "",
          "type": "uint256"
        }
      ],
      "stateMutability": "view",
      "type": "function"
    },
    {
      "inputs": [],
      "name": "getReserve",
      "outputs": [
        {
          "internalType": "uint256",
          "name": "",
          "type": "uint256"
        }
      ],
      "stateMutability": "view",
      "type": "function"
    },
    {
      "inputs": [
        {
          "internalType": "uint256",
          "name": "_ethSold",
          "type": "uint256"
        }
      ],
      "name": "getTokenAmount",
      "outputs": [
        {
          "internalType": "uint256",
          "name": "",
          "type": "uint256"
        }
      ],
      "stateMutability": "view",
      "type": "function"
    },
    {
      "inputs": [
        {
          "internalType": "address",
          "name": "spender",
          "type": "address"
        },
        {
          "internalType": "uint256",
          "name": "addedValue",
          "type": "uint256"
        }
      ],
      "name": "increaseAllowance",
      "outputs": [
        {
          "internalType": "bool",
          "name": "",
          "type": "bool"
        }
      ],
      "stateMutability": "nonpayable",
      "type": "function"
    },
    {
      "inputs": [],
      "name": "name",
      "outputs": [
        {
          "internalType": "string",
          "name": "",
          "type": "string"
        }
      ],
      "stateMutability": "view",
      "type": "function"
    },
    {
      "inputs": [
        {
          "internalType": "uint256",
          "name": "_amount",
          "type": "uint256"
        }
      ],
      "name": "removeLiquidity",
      "outputs": [
        {
          "internalType": "uint256",
          "name": "",
          "type": "uint256"
        },
        {
          "internalType": "uint256",
          "name": "",
          "type": "uint256"
        }
      ],
      "stateMutability": "nonpayable",
      "type": "function"
    },
    {
      "inputs": [],
      "name": "symbol",
      "outputs": [
        {
          "internalType": "string",
          "name": "",
          "type": "string"
        }
      ],
      "stateMutability": "view",
      "type": "function"
    },
    {
      "inputs": [],
      "name": "tokenAddress",
      "outputs": [
        {
          "internalType": "address",
          "name": "",
          "type": "address"
        }
      ],
      "stateMutability": "view",
      "type": "function"
    },
    {
      "inputs": [
        {
          "internalType": "uint256",
          "name": "_tokensSold",
          "type": "uint256"
        },
        {
          "internalType": "uint256",
          "name": "_minEth",
          "type": "uint256"
        }
      ],
      "name": "tokenToEthSwap",
      "outputs": [],
      "stateMutability": "nonpayable",
      "type": "function"
    },
    {
      "inputs": [
        {
          "internalType": "uint256",
          "name": "_tokensSold",
          "type": "uint256"
        },
        {
          "internalType": "uint256",
          "name": "_minTokensBought",
          "type": "uint256"
        },
        {
          "internalType": "address",
          "name": "_tokenAddress",
          "type": "address"
        }
      ],
      "name": "tokenToTokenSwap",
      "outputs": [],
      "stateMutability": "nonpayable",
      "type": "function"
    },
    {
      "inputs": [],
      "name": "totalSupply",
      "outputs": [
        {
          "internalType": "uint256",
          "name": "",
          "type": "uint256"
        }
      ],
      "stateMutability": "view",
      "type": "function"
    },
    {
      "inputs": [
        {
          "internalType": "address",
          "name": "to",
          "type": "address"
        },
        {
          "internalType": "uint256",
          "name": "amount",
          "type": "uint256"
        }
      ],
      "name": "transfer",
      "outputs": [
        {
          "internalType": "bool",
          "name": "",
          "type": "bool"
        }
      ],
      "stateMutability": "nonpayable",
      "type": "function"
    },
    {
      "inputs": [
        {
          "internalType": "address",
          "name": "from",
          "type": "address"
        },
        {
          "internalType": "address",
          "name": "to",
          "type": "address"
        },
        {
          "internalType": "uint256",
          "name": "amount",
          "type": "uint256"
        }
      ],
      "name": "transferFrom",
      "outputs": [
        {
          "internalType": "bool",
          "name": "",
          "type": "bool"
        }
      ],
      "stateMutability": "nonpayable",
      "type": "function"
    }
  ],
  "bytecode": "0x60806040523480156200001157600080fd5b506040516200301f3803806200301f83398181016040528101906200003791906200029a565b6040518060400160405280600b81526020017f41756e69737761702d56310000000000000000000000000000000000000000008152506040518060400160405280600781526020017f41554e492d5631000000000000000000000000000000000000000000000000008152508160039080519060200190620000bb929190620001d3565b508060049080519060200190620000d4929190620001d3565b505050600073ffffffffffffffffffffffffffffffffffffffff168173ffffffffffffffffffffffffffffffffffffffff1614156200014a576040517f08c379a00000000000000000000000000000000000000000000000000000000081526004016200014190620002ed565b60405180910390fd5b80600560006101000a81548173ffffffffffffffffffffffffffffffffffffffff021916908373ffffffffffffffffffffffffffffffffffffffff16021790555033600660006101000a81548173ffffffffffffffffffffffffffffffffffffffff021916908373ffffffffffffffffffffffffffffffffffffffff16021790555050620003fc565b828054620001e19062000354565b90600052602060002090601f01602090048101928262000205576000855562000251565b82601f106200022057805160ff191683800117855562000251565b8280016001018555821562000251579182015b828111156200025057825182559160200191906001019062000233565b5b50905062000260919062000264565b5090565b5b808211156200027f57600081600090555060010162000265565b5090565b6000815190506200029481620003e2565b92915050565b600060208284031215620002ad57600080fd5b6000620002bd8482850162000283565b91505092915050565b6000620002d56015836200030f565b9150620002e282620003b9565b602082019050919050565b600060208201905081810360008301526200030881620002c6565b9050919050565b600082825260208201905092915050565b60006200032d8262000334565b9050919050565b600073ffffffffffffffffffffffffffffffffffffffff82169050919050565b600060028204905060018216806200036d57607f821691505b602082108114156200038457620003836200038a565b5b50919050565b7f4e487b7100000000000000000000000000000000000000000000000000000000600052602260045260246000fd5b7f696e76616c696420746f6b656e20616464726573730000000000000000000000600082015250565b620003ed8162000320565b8114620003f957600080fd5b50565b612c13806200040c6000396000f3fe6080604052600436106101355760003560e01c806395d89b41116100ab578063a9059cbb1161006f578063a9059cbb1461045f578063c2507ac11461049c578063dd62ed3e146104d9578063e0486c8a14610516578063f7a7e3241461053f578063f979dcd71461056857610135565b806395d89b4114610363578063966dae0e1461038e5780639c8f9f23146103b95780639d76ea58146103f7578063a457c2d71461042257610135565b8063389d9a40116100fd578063389d9a4014610235578063395093511461025157806351c6590a1461028e57806359bf5d39146102be57806370a08231146102e95780638fc7a25d1461032657610135565b806306fdde031461013a578063095ea7b31461016557806318160ddd146101a257806323b872dd146101cd578063313ce5671461020a575b600080fd5b34801561014657600080fd5b5061014f610584565b60405161015c919061225c565b60405180910390f35b34801561017157600080fd5b5061018c60048036038101906101879190611d80565b610616565b6040516101999190612241565b60405180910390f35b3480156101ae57600080fd5b506101b7610639565b6040516101c4919061249e565b60405180910390f35b3480156101d957600080fd5b506101f460048036038101906101ef9190611d31565b610643565b6040516102019190612241565b60405180910390f35b34801561021657600080fd5b5061021f610672565b60405161022c919061250b565b60405180910390f35b61024f600480360381019061024a9190611e37565b61067b565b005b34801561025d57600080fd5b5061027860048036038101906102739190611d80565b610689565b6040516102859190612241565b60405180910390f35b6102a860048036038101906102a39190611de5565b6106c0565b6040516102b5919061249e565b60405180910390f35b3480156102ca57600080fd5b506102d361090c565b6040516102e0919061249e565b60405180910390f35b3480156102f557600080fd5b50610310600480360381019061030b9190611ca3565b6109be565b60405161031d919061249e565b60405180910390f35b34801561033257600080fd5b5061034d60048036038101906103489190611de5565b610a06565b60405161035a919061249e565b60405180910390f35b34801561036f57600080fd5b50610378610a69565b604051610385919061225c565b60405180910390f35b34801561039a57600080fd5b506103a3610afb565b6040516103b091906121c6565b60405180910390f35b3480156103c557600080fd5b506103e060048036038101906103db9190611de5565b610b21565b6040516103ee9291906124e2565b60405180910390f35b34801561040357600080fd5b5061040c610cc0565b60405161041991906121c6565b60405180910390f35b34801561042e57600080fd5b5061044960048036038101906104449190611d80565b610ce6565b6040516104569190612241565b60405180910390f35b34801561046b57600080fd5b5061048660048036038101906104819190611d80565b610d5d565b6040516104939190612241565b60405180910390f35b3480156104a857600080fd5b506104c360048036038101906104be9190611de5565b610d80565b6040516104d0919061249e565b60405180910390f35b3480156104e557600080fd5b5061050060048036038101906104fb9190611cf5565b610de3565b60405161050d919061249e565b60405180910390f35b34801561052257600080fd5b5061053d60048036038101906105389190611e73565b610e6a565b005b34801561054b57600080fd5b5061056660048036038101906105619190611eaf565b610fc7565b005b610582600480360381019061057d9190611de5565b611263565b005b606060038054610593906126df565b80601f01602080910402602001604051908101604052809291908181526020018280546105bf906126df565b801561060c5780601f106105e15761010080835404028352916020019161060c565b820191906000526020600020905b8154815290600101906020018083116105ef57829003601f168201915b5050505050905090565b600080610621611270565b905061062e818585611278565b600191505092915050565b6000600254905090565b60008061064e611270565b905061065b858285611443565b6106668585856114cf565b60019150509392505050565b60006012905090565b6106858282611747565b5050565b600080610694611270565b90506106b58185856106a68589610de3565b6106b09190612542565b611278565b600191505092915050565b6000806106cb61090c565b14156107a1576000600560009054906101000a900473ffffffffffffffffffffffffffffffffffffffff1690508073ffffffffffffffffffffffffffffffffffffffff166323b872dd3330866040518463ffffffff1660e01b8152600401610735939291906121e1565b602060405180830381600087803b15801561074f57600080fd5b505af1158015610763573d6000803e3d6000fd5b505050506040513d601f19601f820116820180604052508101906107879190611dbc565b5060004790506107973382611866565b8092505050610907565b600034476107af9190612623565b905060006107bb61090c565b905060008282346107cc91906125c9565b6107d69190612598565b90508085101561081b576040517f08c379a0000000000000000000000000000000000000000000000000000000008152600401610812906123fe565b60405180910390fd5b6000600560009054906101000a900473ffffffffffffffffffffffffffffffffffffffff1690508073ffffffffffffffffffffffffffffffffffffffff166323b872dd3330856040518463ffffffff1660e01b815260040161087f939291906121e1565b602060405180830381600087803b15801561089957600080fd5b505af11580156108ad573d6000803e3d6000fd5b505050506040513d601f19601f820116820180604052508101906108d19190611dbc565b506000846108dd610639565b346108e891906125c9565b6108f29190612598565b90506108fe3382611866565b80955050505050505b919050565b6000600560009054906101000a900473ffffffffffffffffffffffffffffffffffffffff1673ffffffffffffffffffffffffffffffffffffffff166370a08231306040518263ffffffff1660e01b815260040161096991906121c6565b60206040518083038186803b15801561098157600080fd5b505afa158015610995573d6000803e3d6000fd5b505050506040513d601f19601f820116820180604052508101906109b99190611e0e565b905090565b60008060008373ffffffffffffffffffffffffffffffffffffffff1673ffffffffffffffffffffffffffffffffffffffff168152602001908152602001600020549050919050565b6000808211610a4a576040517f08c379a0000000000000000000000000000000000000000000000000000000008152600401610a419061235e565b60405180910390fd5b6000610a5461090c565b9050610a618382476119bd565b915050919050565b606060048054610a78906126df565b80601f0160208091040260200160405190810160405280929190818152602001828054610aa4906126df565b8015610af15780601f10610ac657610100808354040283529160200191610af1565b820191906000526020600020905b815481529060010190602001808311610ad457829003601f168201915b5050505050905090565b600660009054906101000a900473ffffffffffffffffffffffffffffffffffffffff1681565b60008060008311610b67576040517f08c379a0000000000000000000000000000000000000000000000000000000008152600401610b5e9061231e565b60405180910390fd5b6000610b71610639565b8447610b7d91906125c9565b610b879190612598565b90506000610b93610639565b85610b9c61090c565b610ba691906125c9565b610bb09190612598565b9050610bbc3386611a62565b3373ffffffffffffffffffffffffffffffffffffffff166108fc839081150290604051600060405180830381858888f19350505050158015610c02573d6000803e3d6000fd5b50600560009054906101000a900473ffffffffffffffffffffffffffffffffffffffff1673ffffffffffffffffffffffffffffffffffffffff1663a9059cbb33836040518363ffffffff1660e01b8152600401610c60929190612218565b602060405180830381600087803b158015610c7a57600080fd5b505af1158015610c8e573d6000803e3d6000fd5b505050506040513d601f19601f82011682018060405250810190610cb29190611dbc565b508181935093505050915091565b600560009054906101000a900473ffffffffffffffffffffffffffffffffffffffff1681565b600080610cf1611270565b90506000610cff8286610de3565b905083811015610d44576040517f08c379a0000000000000000000000000000000000000000000000000000000008152600401610d3b9061245e565b60405180910390fd5b610d518286868403611278565b60019250505092915050565b600080610d68611270565b9050610d758185856114cf565b600191505092915050565b6000808211610dc4576040517f08c379a0000000000000000000000000000000000000000000000000000000008152600401610dbb9061233e565b60405180910390fd5b6000610dce61090c565b9050610ddb8347836119bd565b915050919050565b6000600160008473ffffffffffffffffffffffffffffffffffffffff1673ffffffffffffffffffffffffffffffffffffffff16815260200190815260200160002060008373ffffffffffffffffffffffffffffffffffffffff1673ffffffffffffffffffffffffffffffffffffffff16815260200190815260200160002054905092915050565b6000610e7461090c565b90506000610e838483476119bd565b905082811015610ec8576040517f08c379a0000000000000000000000000000000000000000000000000000000008152600401610ebf906123be565b60405180910390fd5b600560009054906101000a900473ffffffffffffffffffffffffffffffffffffffff1673ffffffffffffffffffffffffffffffffffffffff166323b872dd3330876040518463ffffffff1660e01b8152600401610f27939291906121e1565b602060405180830381600087803b158015610f4157600080fd5b505af1158015610f55573d6000803e3d6000fd5b505050506040513d601f19601f82011682018060405250810190610f799190611dbc565b503373ffffffffffffffffffffffffffffffffffffffff166108fc829081150290604051600060405180830381858888f19350505050158015610fc0573d6000803e3d6000fd5b5050505050565b6000600660009054906101000a900473ffffffffffffffffffffffffffffffffffffffff1673ffffffffffffffffffffffffffffffffffffffff166306f2bf62836040518263ffffffff1660e01b815260040161102491906121c6565b602060405180830381600087803b15801561103e57600080fd5b505af1158015611052573d6000803e3d6000fd5b505050506040513d601f19601f820116820180604052508101906110769190611ccc565b90503073ffffffffffffffffffffffffffffffffffffffff168173ffffffffffffffffffffffffffffffffffffffff16141580156110e15750600073ffffffffffffffffffffffffffffffffffffffff168173ffffffffffffffffffffffffffffffffffffffff1614155b611120576040517f08c379a00000000000000000000000000000000000000000000000000000000081526004016111179061237e565b60405180910390fd5b600061112a61090c565b905060006111398683476119bd565b9050600560009054906101000a900473ffffffffffffffffffffffffffffffffffffffff1673ffffffffffffffffffffffffffffffffffffffff166323b872dd3330896040518463ffffffff1660e01b815260040161119a939291906121e1565b602060405180830381600087803b1580156111b457600080fd5b505af11580156111c8573d6000803e3d6000fd5b505050506040513d601f19601f820116820180604052508101906111ec9190611dbc565b508273ffffffffffffffffffffffffffffffffffffffff1663389d9a408287336040518463ffffffff1660e01b81526004016112299291906124b9565b6000604051808303818588803b15801561124257600080fd5b505af1158015611256573d6000803e3d6000fd5b5050505050505050505050565b61126d8133611747565b50565b600033905090565b600073ffffffffffffffffffffffffffffffffffffffff168373ffffffffffffffffffffffffffffffffffffffff1614156112e8576040517f08c379a00000000000000000000000000000000000000000000000000000000081526004016112df9061241e565b60405180910390fd5b600073ffffffffffffffffffffffffffffffffffffffff168273ffffffffffffffffffffffffffffffffffffffff161415611358576040517f08c379a000000000000000000000000000000000000000000000000000000000815260040161134f906122be565b60405180910390fd5b80600160008573ffffffffffffffffffffffffffffffffffffffff1673ffffffffffffffffffffffffffffffffffffffff16815260200190815260200160002060008473ffffffffffffffffffffffffffffffffffffffff1673ffffffffffffffffffffffffffffffffffffffff168152602001908152602001600020819055508173ffffffffffffffffffffffffffffffffffffffff168373ffffffffffffffffffffffffffffffffffffffff167f8c5be1e5ebec7d5bd14f71427d1e84f3dd0314c0f7b2291e5b200ac8c7c3b92583604051611436919061249e565b60405180910390a3505050565b600061144f8484610de3565b90507fffffffffffffffffffffffffffffffffffffffffffffffffffffffffffffffff81146114c957818110156114bb576040517f08c379a00000000000000000000000000000000000000000000000000000000081526004016114b2906122de565b60405180910390fd5b6114c88484848403611278565b5b50505050565b600073ffffffffffffffffffffffffffffffffffffffff168373ffffffffffffffffffffffffffffffffffffffff16141561153f576040517f08c379a0000000000000000000000000000000000000000000000000000000008152600401611536906123de565b60405180910390fd5b600073ffffffffffffffffffffffffffffffffffffffff168273ffffffffffffffffffffffffffffffffffffffff1614156115af576040517f08c379a00000000000000000000000000000000000000000000000000000000081526004016115a69061227e565b60405180910390fd5b6115ba838383611c30565b60008060008573ffffffffffffffffffffffffffffffffffffffff1673ffffffffffffffffffffffffffffffffffffffff16815260200190815260200160002054905081811015611640576040517f08c379a0000000000000000000000000000000000000000000000000000000008152600401611637906122fe565b60405180910390fd5b8181036000808673ffffffffffffffffffffffffffffffffffffffff1673ffffffffffffffffffffffffffffffffffffffff16815260200190815260200160002081905550816000808573ffffffffffffffffffffffffffffffffffffffff1673ffffffffffffffffffffffffffffffffffffffff168152602001908152602001600020600082825401925050819055508273ffffffffffffffffffffffffffffffffffffffff168473ffffffffffffffffffffffffffffffffffffffff167fddf252ad1be2c89b69c2b068fc378daa952ba7f163c4a11628f55a4df523b3ef8460405161172e919061249e565b60405180910390a3611741848484611c35565b50505050565b600061175161090c565b9050600061176b3434476117659190612623565b846119bd565b9050838110156117b0576040517f08c379a00000000000000000000000000000000000000000000000000000000081526004016117a7906123be565b60405180910390fd5b600560009054906101000a900473ffffffffffffffffffffffffffffffffffffffff1673ffffffffffffffffffffffffffffffffffffffff1663a9059cbb84836040518363ffffffff1660e01b815260040161180d929190612218565b602060405180830381600087803b15801561182757600080fd5b505af115801561183b573d6000803e3d6000fd5b505050506040513d601f19601f8201168201806040525081019061185f9190611dbc565b5050505050565b600073ffffffffffffffffffffffffffffffffffffffff168273ffffffffffffffffffffffffffffffffffffffff1614156118d6576040517f08c379a00000000000000000000000000000000000000000000000000000000081526004016118cd9061247e565b60405180910390fd5b6118e260008383611c30565b80600260008282546118f49190612542565b92505081905550806000808473ffffffffffffffffffffffffffffffffffffffff1673ffffffffffffffffffffffffffffffffffffffff168152602001908152602001600020600082825401925050819055508173ffffffffffffffffffffffffffffffffffffffff16600073ffffffffffffffffffffffffffffffffffffffff167fddf252ad1be2c89b69c2b068fc378daa952ba7f163c4a11628f55a4df523b3ef836040516119a5919061249e565b60405180910390a36119b960008383611c35565b5050565b600080831180156119ce5750600082115b611a0d576040517f08c379a0000000000000000000000000000000000000000000000000000000008152600401611a049061243e565b60405180910390fd5b6000606385611a1c91906125c9565b905060008382611a2c91906125c9565b9050600082606487611a3e91906125c9565b611a489190612542565b90508082611a569190612598565b93505050509392505050565b600073ffffffffffffffffffffffffffffffffffffffff168273ffffffffffffffffffffffffffffffffffffffff161415611ad2576040517f08c379a0000000000000000000000000000000000000000000000000000000008152600401611ac99061239e565b60405180910390fd5b611ade82600083611c30565b60008060008473ffffffffffffffffffffffffffffffffffffffff1673ffffffffffffffffffffffffffffffffffffffff16815260200190815260200160002054905081811015611b64576040517f08c379a0000000000000000000000000000000000000000000000000000000008152600401611b5b9061229e565b60405180910390fd5b8181036000808573ffffffffffffffffffffffffffffffffffffffff1673ffffffffffffffffffffffffffffffffffffffff1681526020019081526020016000208190555081600260008282540392505081905550600073ffffffffffffffffffffffffffffffffffffffff168373ffffffffffffffffffffffffffffffffffffffff167fddf252ad1be2c89b69c2b068fc378daa952ba7f163c4a11628f55a4df523b3ef84604051611c17919061249e565b60405180910390a3611c2b83600084611c35565b505050565b505050565b505050565b600081359050611c4981612b98565b92915050565b600081519050611c5e81612b98565b92915050565b600081519050611c7381612baf565b92915050565b600081359050611c8881612bc6565b92915050565b600081519050611c9d81612bc6565b92915050565b600060208284031215611cb557600080fd5b6000611cc384828501611c3a565b91505092915050565b600060208284031215611cde57600080fd5b6000611cec84828501611c4f565b91505092915050565b60008060408385031215611d0857600080fd5b6000611d1685828601611c3a565b9250506020611d2785828601611c3a565b9150509250929050565b600080600060608486031215611d4657600080fd5b6000611d5486828701611c3a565b9350506020611d6586828701611c3a565b9250506040611d7686828701611c79565b9150509250925092565b60008060408385031215611d9357600080fd5b6000611da185828601611c3a565b9250506020611db285828601611c79565b9150509250929050565b600060208284031215611dce57600080fd5b6000611ddc84828501611c64565b91505092915050565b600060208284031215611df757600080fd5b6000611e0584828501611c79565b91505092915050565b600060208284031215611e2057600080fd5b6000611e2e84828501611c8e565b91505092915050565b60008060408385031215611e4a57600080fd5b6000611e5885828601611c79565b9250506020611e6985828601611c3a565b9150509250929050565b60008060408385031215611e8657600080fd5b6000611e9485828601611c79565b9250506020611ea585828601611c79565b9150509250929050565b600080600060608486031215611ec457600080fd5b6000611ed286828701611c79565b9350506020611ee386828701611c79565b9250506040611ef486828701611c3a565b9150509250925092565b611f0781612657565b82525050565b611f1681612669565b82525050565b6000611f2782612526565b611f318185612531565b9350611f418185602086016126ac565b611f4a8161279e565b840191505092915050565b6000611f62602383612531565b9150611f6d826127af565b604082019050919050565b6000611f85602283612531565b9150611f90826127fe565b604082019050919050565b6000611fa8602283612531565b9150611fb38261284d565b604082019050919050565b6000611fcb601d83612531565b9150611fd68261289c565b602082019050919050565b6000611fee602683612531565b9150611ff9826128c5565b604082019050919050565b6000612011600e83612531565b915061201c82612914565b602082019050919050565b6000612034601483612531565b915061203f8261293d565b602082019050919050565b6000612057601683612531565b915061206282612966565b602082019050919050565b600061207a601883612531565b91506120858261298f565b602082019050919050565b600061209d602183612531565b91506120a8826129b8565b604082019050919050565b60006120c0601a83612531565b91506120cb82612a07565b602082019050919050565b60006120e3602583612531565b91506120ee82612a30565b604082019050919050565b6000612106601983612531565b915061211182612a7f565b602082019050919050565b6000612129602483612531565b915061213482612aa8565b604082019050919050565b600061214c601083612531565b915061215782612af7565b602082019050919050565b600061216f602583612531565b915061217a82612b20565b604082019050919050565b6000612192601f83612531565b915061219d82612b6f565b602082019050919050565b6121b181612695565b82525050565b6121c08161269f565b82525050565b60006020820190506121db6000830184611efe565b92915050565b60006060820190506121f66000830186611efe565b6122036020830185611efe565b61221060408301846121a8565b949350505050565b600060408201905061222d6000830185611efe565b61223a60208301846121a8565b9392505050565b60006020820190506122566000830184611f0d565b92915050565b600060208201905081810360008301526122768184611f1c565b905092915050565b6000602082019050818103600083015261229781611f55565b9050919050565b600060208201905081810360008301526122b781611f78565b9050919050565b600060208201905081810360008301526122d781611f9b565b9050919050565b600060208201905081810360008301526122f781611fbe565b9050919050565b6000602082019050818103600083015261231781611fe1565b9050919050565b6000602082019050818103600083015261233781612004565b9050919050565b6000602082019050818103600083015261235781612027565b9050919050565b600060208201905081810360008301526123778161204a565b9050919050565b600060208201905081810360008301526123978161206d565b9050919050565b600060208201905081810360008301526123b781612090565b9050919050565b600060208201905081810360008301526123d7816120b3565b9050919050565b600060208201905081810360008301526123f7816120d6565b9050919050565b60006020820190508181036000830152612417816120f9565b9050919050565b600060208201905081810360008301526124378161211c565b9050919050565b600060208201905081810360008301526124578161213f565b9050919050565b6000602082019050818103600083015261247781612162565b9050919050565b6000602082019050818103600083015261249781612185565b9050919050565b60006020820190506124b360008301846121a8565b92915050565b60006040820190506124ce60008301856121a8565b6124db6020830184611efe565b9392505050565b60006040820190506124f760008301856121a8565b61250460208301846121a8565b9392505050565b600060208201905061252060008301846121b7565b92915050565b600081519050919050565b600082825260208201905092915050565b600061254d82612695565b915061255883612695565b9250827fffffffffffffffffffffffffffffffffffffffffffffffffffffffffffffffff0382111561258d5761258c612711565b5b828201905092915050565b60006125a382612695565b91506125ae83612695565b9250826125be576125bd612740565b5b828204905092915050565b60006125d482612695565b91506125df83612695565b9250817fffffffffffffffffffffffffffffffffffffffffffffffffffffffffffffffff048311821515161561261857612617612711565b5b828202905092915050565b600061262e82612695565b915061263983612695565b92508282101561264c5761264b612711565b5b828203905092915050565b600061266282612675565b9050919050565b60008115159050919050565b600073ffffffffffffffffffffffffffffffffffffffff82169050919050565b6000819050919050565b600060ff82169050919050565b60005b838110156126ca5780820151818401526020810190506126af565b838111156126d9576000848401525b50505050565b600060028204905060018216806126f757607f821691505b6020821081141561270b5761270a61276f565b5b50919050565b7f4e487b7100000000000000000000000000000000000000000000000000000000600052601160045260246000fd5b7f4e487b7100000000000000000000000000000000000000000000000000000000600052601260045260246000fd5b7f4e487b7100000000000000000000000000000000000000000000000000000000600052602260045260246000fd5b6000601f19601f8301169050919050565b7f45524332303a207472616e7366657220746f20746865207a65726f206164647260008201527f6573730000000000000000000000000000000000000000000000000000000000602082015250565b7f45524332303a206275726e20616d6f756e7420657863656564732062616c616e60008201527f6365000000000000000000000000000000000000000000000000000000000000602082015250565b7f45524332303a20617070726f766520746f20746865207a65726f20616464726560008201527f7373000000000000000000000000000000000000000000000000000000000000602082015250565b7f45524332303a20696e73756666696369656e7420616c6c6f77616e6365000000600082015250565b7f45524332303a207472616e7366657220616d6f756e742065786365656473206260008201527f616c616e63650000000000000000000000000000000000000000000000000000602082015250565b7f696e76616c696420616d6f756e74000000000000000000000000000000000000600082015250565b7f657468536f6c6420697320746f6f20736d616c6c000000000000000000000000600082015250565b7f746f6b656e536f6c6420697320746f6f20736d616c6c00000000000000000000600082015250565b7f696e76616c69642065786368616e676520616464726573730000000000000000600082015250565b7f45524332303a206275726e2066726f6d20746865207a65726f2061646472657360008201527f7300000000000000000000000000000000000000000000000000000000000000602082015250565b7f696e73756666696369656e74206f757470757420616d6f756e74000000000000600082015250565b7f45524332303a207472616e736665722066726f6d20746865207a65726f20616460008201527f6472657373000000000000000000000000000000000000000000000000000000602082015250565b7f696e73756666696369656e7420746f6b656e20616d6f756e7400000000000000600082015250565b7f45524332303a20617070726f76652066726f6d20746865207a65726f2061646460008201527f7265737300000000000000000000000000000000000000000000000000000000602082015250565b7f696e76616c696420726573657276657300000000000000000000000000000000600082015250565b7f45524332303a2064656372656173656420616c6c6f77616e63652062656c6f7760008201527f207a65726f000000000000000000000000000000000000000000000000000000602082015250565b7f45524332303a206d696e7420746f20746865207a65726f206164647265737300600082015250565b612ba181612657565b8114612bac57600080fd5b50565b612bb881612669565b8114612bc357600080fd5b50565b612bcf81612695565b8114612bda57600080fd5b5056fea26469706673582212204052294684f60fd70544c023e6697117795dbb3d9fbec31f51f690fa4e72f63164736f6c63430008040033",
  "linkReferences": {},
  "deployedLinkReferences": {}
}