{
  "_format": "hh-sol-artifact-1",
  "contractName": "Factory",
  "sourceName": "contracts/Factory.sol",
  "abi": [
    {
      "inputs": [
        {
          "internalType": "address",
          "name": "_tokenAddress",
          "type": "address"
        }
      ],
      "name": "createExchange",
      "outputs": [
        {
          "internalType": "address",
          "name": "",
          "type": "address"
        }
      ],
      "stateMutability": "nonpayable",
      "type": "function"
    },
    {
      "inputs": [
        {
          "internalType": "address",
          "name": "_tokenAddress",
          "type": "address"
        }
      ],
      "name": "getExchange",
      "outputs": [
        {
          "internalType": "address",
          "name": "",
          "type": "address"
        }
      ],
      "stateMutability": "view",
      "type": "function"
    },
    {
      "inputs": [
        {
          "internalType": "address",
          "name": "",
          "type": "address"
        }
      ],
      "name": "tokenToExchange",
      "outputs": [
        {
          "internalType": "address",
          "name": "",
          "type": "address"
        }
      ],
      "stateMutability": "view",
      "type": "function"
    }
  ],
  "bytecode": "0x608060405234801561001057600080fd5b50613766806100206000396000f3fe60806040523480156200001157600080fd5b5060043610620000465760003560e01c806306f2bf62146200004b5780631648f38e1462000081578063c3c49a6314620000b7575b600080fd5b62000069600480360381019062000063919062000406565b620000ed565b60405162000078919062000449565b60405180910390f35b6200009f600480360381019062000099919062000406565b62000155565b604051620000ae919062000449565b60405180910390f35b620000d56004803603810190620000cf919062000406565b6200035b565b604051620000e4919062000449565b60405180910390f35b60008060008373ffffffffffffffffffffffffffffffffffffffff1673ffffffffffffffffffffffffffffffffffffffff16815260200190815260200160002060009054906101000a900473ffffffffffffffffffffffffffffffffffffffff169050919050565b60008073ffffffffffffffffffffffffffffffffffffffff168273ffffffffffffffffffffffffffffffffffffffff1603620001c8576040517f08c379a0000000000000000000000000000000000000000000000000000000008152600401620001bf90620004c7565b60405180910390fd5b600073ffffffffffffffffffffffffffffffffffffffff166000808473ffffffffffffffffffffffffffffffffffffffff1673ffffffffffffffffffffffffffffffffffffffff16815260200190815260200160002060009054906101000a900473ffffffffffffffffffffffffffffffffffffffff1673ffffffffffffffffffffffffffffffffffffffff161462000298576040517f08c379a00000000000000000000000000000000000000000000000000000000081526004016200028f9062000539565b60405180910390fd5b600082604051620002a9906200038e565b620002b5919062000449565b604051809103906000f080158015620002d2573d6000803e3d6000fd5b509050806000808573ffffffffffffffffffffffffffffffffffffffff1673ffffffffffffffffffffffffffffffffffffffff16815260200190815260200160002060006101000a81548173ffffffffffffffffffffffffffffffffffffffff021916908373ffffffffffffffffffffffffffffffffffffffff16021790555080915050919050565b60006020528060005260406000206000915054906101000a900473ffffffffffffffffffffffffffffffffffffffff1681565b6131d5806200055c83390190565b600080fd5b600073ffffffffffffffffffffffffffffffffffffffff82169050919050565b6000620003ce82620003a1565b9050919050565b620003e081620003c1565b8114620003ec57600080fd5b50565b6000813590506200040081620003d5565b92915050565b6000602082840312156200041f576200041e6200039c565b5b60006200042f84828501620003ef565b91505092915050565b6200044381620003c1565b82525050565b600060208201905062000460600083018462000438565b92915050565b600082825260208201905092915050565b7f696e76616c696420746f6b656e20616464726573730000000000000000000000600082015250565b6000620004af60158362000466565b9150620004bc8262000477565b602082019050919050565b60006020820190508181036000830152620004e281620004a0565b9050919050565b7f65786368616e676520616c726561647920657869737473000000000000000000600082015250565b60006200052160178362000466565b91506200052e82620004e9565b602082019050919050565b60006020820190508181036000830152620005548162000512565b905091905056fe60806040523480156200001157600080fd5b50604051620031d5380380620031d583398181016040528101906200003791906200022e565b6040518060400160405280600b81526020017f41756e69737761702d56310000000000000000000000000000000000000000008152506040518060400160405280600781526020017f41554e492d5631000000000000000000000000000000000000000000000000008152508160039081620000b49190620004da565b508060049081620000c69190620004da565b505050600073ffffffffffffffffffffffffffffffffffffffff168173ffffffffffffffffffffffffffffffffffffffff16036200013b576040517f08c379a0000000000000000000000000000000000000000000000000000000008152600401620001329062000622565b60405180910390fd5b80600560006101000a81548173ffffffffffffffffffffffffffffffffffffffff021916908373ffffffffffffffffffffffffffffffffffffffff16021790555033600660006101000a81548173ffffffffffffffffffffffffffffffffffffffff021916908373ffffffffffffffffffffffffffffffffffffffff1602179055505062000644565b600080fd5b600073ffffffffffffffffffffffffffffffffffffffff82169050919050565b6000620001f682620001c9565b9050919050565b6200020881620001e9565b81146200021457600080fd5b50565b6000815190506200022881620001fd565b92915050565b600060208284031215620002475762000246620001c4565b5b6000620002578482850162000217565b91505092915050565b600081519050919050565b7f4e487b7100000000000000000000000000000000000000000000000000000000600052604160045260246000fd5b7f4e487b7100000000000000000000000000000000000000000000000000000000600052602260045260246000fd5b60006002820490506001821680620002e257607f821691505b602082108103620002f857620002f76200029a565b5b50919050565b60008190508160005260206000209050919050565b60006020601f8301049050919050565b600082821b905092915050565b600060088302620003627fffffffffffffffffffffffffffffffffffffffffffffffffffffffffffffffff8262000323565b6200036e868362000323565b95508019841693508086168417925050509392505050565b6000819050919050565b6000819050919050565b6000620003bb620003b5620003af8462000386565b62000390565b62000386565b9050919050565b6000819050919050565b620003d7836200039a565b620003ef620003e682620003c2565b84845462000330565b825550505050565b600090565b62000406620003f7565b62000413818484620003cc565b505050565b5b818110156200043b576200042f600082620003fc565b60018101905062000419565b5050565b601f8211156200048a576200045481620002fe565b6200045f8462000313565b810160208510156200046f578190505b620004876200047e8562000313565b83018262000418565b50505b505050565b600082821c905092915050565b6000620004af600019846008026200048f565b1980831691505092915050565b6000620004ca83836200049c565b9150826002028217905092915050565b620004e58262000260565b67ffffffffffffffff8111156200050157620005006200026b565b5b6200050d8254620002c9565b6200051a8282856200043f565b600060209050601f8311600181146200055257600084156200053d578287015190505b620005498582620004bc565b865550620005b9565b601f1984166200056286620002fe565b60005b828110156200058c5784890151825560018201915060208501945060208101905062000565565b86831015620005ac5784890151620005a8601f8916826200049c565b8355505b6001600288020188555050505b505050505050565b600082825260208201905092915050565b7f696e76616c696420746f6b656e20616464726573730000000000000000000000600082015250565b60006200060a601583620005c1565b91506200061782620005d2565b602082019050919050565b600060208201905081810360008301526200063d81620005fb565b9050919050565b612b8180620006546000396000f3fe6080604052600436106101355760003560e01c806395d89b41116100ab578063a9059cbb1161006f578063a9059cbb1461045f578063c2507ac11461049c578063dd62ed3e146104d9578063e0486c8a14610516578063f7a7e3241461053f578063f979dcd71461056857610135565b806395d89b4114610363578063966dae0e1461038e5780639c8f9f23146103b95780639d76ea58146103f7578063a457c2d71461042257610135565b8063389d9a40116100fd578063389d9a4014610235578063395093511461025157806351c6590a1461028e57806359bf5d39146102be57806370a08231146102e95780638fc7a25d1461032657610135565b806306fdde031461013a578063095ea7b31461016557806318160ddd146101a257806323b872dd146101cd578063313ce5671461020a575b600080fd5b34801561014657600080fd5b5061014f610584565b60405161015c9190611c4b565b60405180910390f35b34801561017157600080fd5b5061018c60048036038101906101879190611d06565b610616565b6040516101999190611d61565b60405180910390f35b3480156101ae57600080fd5b506101b7610639565b6040516101c49190611d8b565b60405180910390f35b3480156101d957600080fd5b506101f460048036038101906101ef9190611da6565b610643565b6040516102019190611d61565b60405180910390f35b34801561021657600080fd5b5061021f610672565b60405161022c9190611e15565b60405180910390f35b61024f600480360381019061024a9190611e30565b61067b565b005b34801561025d57600080fd5b5061027860048036038101906102739190611d06565b610689565b6040516102859190611d61565b60405180910390f35b6102a860048036038101906102a39190611e70565b6106c0565b6040516102b59190611d8b565b60405180910390f35b3480156102ca57600080fd5b506102d36108ed565b6040516102e09190611d8b565b60405180910390f35b3480156102f557600080fd5b50610310600480360381019061030b9190611e9d565b610990565b60405161031d9190611d8b565b60405180910390f35b34801561033257600080fd5b5061034d60048036038101906103489190611e70565b6109d8565b60405161035a9190611d8b565b60405180910390f35b34801561036f57600080fd5b50610378610a3b565b6040516103859190611c4b565b60405180910390f35b34801561039a57600080fd5b506103a3610acd565b6040516103b09190611ed9565b60405180910390f35b3480156103c557600080fd5b506103e060048036038101906103db9190611e70565b610af3565b6040516103ee929190611ef4565b60405180910390f35b34801561040357600080fd5b5061040c610c83565b6040516104199190611ed9565b60405180910390f35b34801561042e57600080fd5b5061044960048036038101906104449190611d06565b610ca9565b6040516104569190611d61565b60405180910390f35b34801561046b57600080fd5b5061048660048036038101906104819190611d06565b610d20565b6040516104939190611d61565b60405180910390f35b3480156104a857600080fd5b506104c360048036038101906104be9190611e70565b610d43565b6040516104d09190611d8b565b60405180910390f35b3480156104e557600080fd5b5061050060048036038101906104fb9190611f1d565b610da6565b60405161050d9190611d8b565b60405180910390f35b34801561052257600080fd5b5061053d60048036038101906105389190611f5d565b610e2d565b005b34801561054b57600080fd5b5061056660048036038101906105619190611f9d565b610f7b565b005b610582600480360381019061057d9190611e70565b6111f9565b005b6060600380546105939061201f565b80601f01602080910402602001604051908101604052809291908181526020018280546105bf9061201f565b801561060c5780601f106105e15761010080835404028352916020019161060c565b820191906000526020600020905b8154815290600101906020018083116105ef57829003601f168201915b5050505050905090565b600080610621611206565b905061062e81858561120e565b600191505092915050565b6000600254905090565b60008061064e611206565b905061065b8582856113d7565b610666858585611463565b60019150509392505050565b60006012905090565b61068582826116d9565b5050565b600080610694611206565b90506106b58185856106a68589610da6565b6106b0919061207f565b61120e565b600191505092915050565b6000806106cb6108ed565b03610791576000600560009054906101000a900473ffffffffffffffffffffffffffffffffffffffff1690508073ffffffffffffffffffffffffffffffffffffffff166323b872dd3330866040518463ffffffff1660e01b8152600401610734939291906120b3565b6020604051808303816000875af1158015610753573d6000803e3d6000fd5b505050506040513d601f19601f820116820180604052508101906107779190612116565b50600047905061078733826117e9565b80925050506108e8565b6000344761079f9190612143565b905060006107ab6108ed565b905060008282346107bc9190612177565b6107c691906121e8565b90508085101561080b576040517f08c379a000000000000000000000000000000000000000000000000000000000815260040161080290612265565b60405180910390fd5b6000600560009054906101000a900473ffffffffffffffffffffffffffffffffffffffff1690508073ffffffffffffffffffffffffffffffffffffffff166323b872dd3330856040518463ffffffff1660e01b815260040161086f939291906120b3565b6020604051808303816000875af115801561088e573d6000803e3d6000fd5b505050506040513d601f19601f820116820180604052508101906108b29190612116565b506000846108be610639565b346108c99190612177565b6108d391906121e8565b90506108df33826117e9565b80955050505050505b919050565b6000600560009054906101000a900473ffffffffffffffffffffffffffffffffffffffff1673ffffffffffffffffffffffffffffffffffffffff166370a08231306040518263ffffffff1660e01b815260040161094a9190611ed9565b602060405180830381865afa158015610967573d6000803e3d6000fd5b505050506040513d601f19601f8201168201806040525081019061098b919061229a565b905090565b60008060008373ffffffffffffffffffffffffffffffffffffffff1673ffffffffffffffffffffffffffffffffffffffff168152602001908152602001600020549050919050565b6000808211610a1c576040517f08c379a0000000000000000000000000000000000000000000000000000000008152600401610a1390612313565b60405180910390fd5b6000610a266108ed565b9050610a3383824761193f565b915050919050565b606060048054610a4a9061201f565b80601f0160208091040260200160405190810160405280929190818152602001828054610a769061201f565b8015610ac35780601f10610a9857610100808354040283529160200191610ac3565b820191906000526020600020905b815481529060010190602001808311610aa657829003601f168201915b5050505050905090565b600660009054906101000a900473ffffffffffffffffffffffffffffffffffffffff1681565b60008060008311610b39576040517f08c379a0000000000000000000000000000000000000000000000000000000008152600401610b309061237f565b60405180910390fd5b6000610b43610639565b8447610b4f9190612177565b610b5991906121e8565b90506000610b65610639565b85610b6e6108ed565b610b789190612177565b610b8291906121e8565b9050610b8e33866119e4565b3373ffffffffffffffffffffffffffffffffffffffff166108fc839081150290604051600060405180830381858888f19350505050158015610bd4573d6000803e3d6000fd5b50600560009054906101000a900473ffffffffffffffffffffffffffffffffffffffff1673ffffffffffffffffffffffffffffffffffffffff1663a9059cbb33836040518363ffffffff1660e01b8152600401610c3292919061239f565b6020604051808303816000875af1158015610c51573d6000803e3d6000fd5b505050506040513d601f19601f82011682018060405250810190610c759190612116565b508181935093505050915091565b600560009054906101000a900473ffffffffffffffffffffffffffffffffffffffff1681565b600080610cb4611206565b90506000610cc28286610da6565b905083811015610d07576040517f08c379a0000000000000000000000000000000000000000000000000000000008152600401610cfe9061243a565b60405180910390fd5b610d14828686840361120e565b60019250505092915050565b600080610d2b611206565b9050610d38818585611463565b600191505092915050565b6000808211610d87576040517f08c379a0000000000000000000000000000000000000000000000000000000008152600401610d7e906124a6565b60405180910390fd5b6000610d916108ed565b9050610d9e83478361193f565b915050919050565b6000600160008473ffffffffffffffffffffffffffffffffffffffff1673ffffffffffffffffffffffffffffffffffffffff16815260200190815260200160002060008373ffffffffffffffffffffffffffffffffffffffff1673ffffffffffffffffffffffffffffffffffffffff16815260200190815260200160002054905092915050565b6000610e376108ed565b90506000610e4684834761193f565b905082811015610e8b576040517f08c379a0000000000000000000000000000000000000000000000000000000008152600401610e8290612512565b60405180910390fd5b600560009054906101000a900473ffffffffffffffffffffffffffffffffffffffff1673ffffffffffffffffffffffffffffffffffffffff166323b872dd3330876040518463ffffffff1660e01b8152600401610eea939291906120b3565b6020604051808303816000875af1158015610f09573d6000803e3d6000fd5b505050506040513d601f19601f82011682018060405250810190610f2d9190612116565b503373ffffffffffffffffffffffffffffffffffffffff166108fc829081150290604051600060405180830381858888f19350505050158015610f74573d6000803e3d6000fd5b5050505050565b6000600660009054906101000a900473ffffffffffffffffffffffffffffffffffffffff1673ffffffffffffffffffffffffffffffffffffffff166306f2bf62836040518263ffffffff1660e01b8152600401610fd89190611ed9565b6020604051808303816000875af1158015610ff7573d6000803e3d6000fd5b505050506040513d601f19601f8201168201806040525081019061101b9190612547565b90503073ffffffffffffffffffffffffffffffffffffffff168173ffffffffffffffffffffffffffffffffffffffff16141580156110865750600073ffffffffffffffffffffffffffffffffffffffff168173ffffffffffffffffffffffffffffffffffffffff1614155b6110c5576040517f08c379a00000000000000000000000000000000000000000000000000000000081526004016110bc906125c0565b60405180910390fd5b60006110cf6108ed565b905060006110de86834761193f565b9050600560009054906101000a900473ffffffffffffffffffffffffffffffffffffffff1673ffffffffffffffffffffffffffffffffffffffff166323b872dd3330896040518463ffffffff1660e01b815260040161113f939291906120b3565b6020604051808303816000875af115801561115e573d6000803e3d6000fd5b505050506040513d601f19601f820116820180604052508101906111829190612116565b508273ffffffffffffffffffffffffffffffffffffffff1663389d9a408287336040518463ffffffff1660e01b81526004016111bf9291906125e0565b6000604051808303818588803b1580156111d857600080fd5b505af11580156111ec573d6000803e3d6000fd5b5050505050505050505050565b61120381336116d9565b50565b600033905090565b600073ffffffffffffffffffffffffffffffffffffffff168373ffffffffffffffffffffffffffffffffffffffff160361127d576040517f08c379a00000000000000000000000000000000000000000000000000000000081526004016112749061267b565b60405180910390fd5b600073ffffffffffffffffffffffffffffffffffffffff168273ffffffffffffffffffffffffffffffffffffffff16036112ec576040517f08c379a00000000000000000000000000000000000000000000000000000000081526004016112e39061270d565b60405180910390fd5b80600160008573ffffffffffffffffffffffffffffffffffffffff1673ffffffffffffffffffffffffffffffffffffffff16815260200190815260200160002060008473ffffffffffffffffffffffffffffffffffffffff1673ffffffffffffffffffffffffffffffffffffffff168152602001908152602001600020819055508173ffffffffffffffffffffffffffffffffffffffff168373ffffffffffffffffffffffffffffffffffffffff167f8c5be1e5ebec7d5bd14f71427d1e84f3dd0314c0f7b2291e5b200ac8c7c3b925836040516113ca9190611d8b565b60405180910390a3505050565b60006113e38484610da6565b90507fffffffffffffffffffffffffffffffffffffffffffffffffffffffffffffffff811461145d578181101561144f576040517f08c379a000000000000000000000000000000000000000000000000000000000815260040161144690612779565b60405180910390fd5b61145c848484840361120e565b5b50505050565b600073ffffffffffffffffffffffffffffffffffffffff168373ffffffffffffffffffffffffffffffffffffffff16036114d2576040517f08c379a00000000000000000000000000000000000000000000000000000000081526004016114c99061280b565b60405180910390fd5b600073ffffffffffffffffffffffffffffffffffffffff168273ffffffffffffffffffffffffffffffffffffffff1603611541576040517f08c379a00000000000000000000000000000000000000000000000000000000081526004016115389061289d565b60405180910390fd5b61154c838383611bb1565b60008060008573ffffffffffffffffffffffffffffffffffffffff1673ffffffffffffffffffffffffffffffffffffffff168152602001908152602001600020549050818110156115d2576040517f08c379a00000000000000000000000000000000000000000000000000000000081526004016115c99061292f565b60405180910390fd5b8181036000808673ffffffffffffffffffffffffffffffffffffffff1673ffffffffffffffffffffffffffffffffffffffff16815260200190815260200160002081905550816000808573ffffffffffffffffffffffffffffffffffffffff1673ffffffffffffffffffffffffffffffffffffffff168152602001908152602001600020600082825401925050819055508273ffffffffffffffffffffffffffffffffffffffff168473ffffffffffffffffffffffffffffffffffffffff167fddf252ad1be2c89b69c2b068fc378daa952ba7f163c4a11628f55a4df523b3ef846040516116c09190611d8b565b60405180910390a36116d3848484611bb6565b50505050565b60006116e36108ed565b905060006116fd3434476116f79190612143565b8461193f565b905083811015611742576040517f08c379a000000000000000000000000000000000000000000000000000000000815260040161173990612512565b60405180910390fd5b600560009054906101000a900473ffffffffffffffffffffffffffffffffffffffff1673ffffffffffffffffffffffffffffffffffffffff1663a9059cbb84836040518363ffffffff1660e01b815260040161179f92919061239f565b6020604051808303816000875af11580156117be573d6000803e3d6000fd5b505050506040513d601f19601f820116820180604052508101906117e29190612116565b5050505050565b600073ffffffffffffffffffffffffffffffffffffffff168273ffffffffffffffffffffffffffffffffffffffff1603611858576040517f08c379a000000000000000000000000000000000000000000000000000000000815260040161184f9061299b565b60405180910390fd5b61186460008383611bb1565b8060026000828254611876919061207f565b92505081905550806000808473ffffffffffffffffffffffffffffffffffffffff1673ffffffffffffffffffffffffffffffffffffffff168152602001908152602001600020600082825401925050819055508173ffffffffffffffffffffffffffffffffffffffff16600073ffffffffffffffffffffffffffffffffffffffff167fddf252ad1be2c89b69c2b068fc378daa952ba7f163c4a11628f55a4df523b3ef836040516119279190611d8b565b60405180910390a361193b60008383611bb6565b5050565b600080831180156119505750600082115b61198f576040517f08c379a000000000000000000000000000000000000000000000000000000000815260040161198690612a07565b60405180910390fd5b600060638561199e9190612177565b9050600083826119ae9190612177565b90506000826064876119c09190612177565b6119ca919061207f565b905080826119d891906121e8565b93505050509392505050565b600073ffffffffffffffffffffffffffffffffffffffff168273ffffffffffffffffffffffffffffffffffffffff1603611a53576040517f08c379a0000000000000000000000000000000000000000000000000000000008152600401611a4a90612a99565b60405180910390fd5b611a5f82600083611bb1565b60008060008473ffffffffffffffffffffffffffffffffffffffff1673ffffffffffffffffffffffffffffffffffffffff16815260200190815260200160002054905081811015611ae5576040517f08c379a0000000000000000000000000000000000000000000000000000000008152600401611adc90612b2b565b60405180910390fd5b8181036000808573ffffffffffffffffffffffffffffffffffffffff1673ffffffffffffffffffffffffffffffffffffffff1681526020019081526020016000208190555081600260008282540392505081905550600073ffffffffffffffffffffffffffffffffffffffff168373ffffffffffffffffffffffffffffffffffffffff167fddf252ad1be2c89b69c2b068fc378daa952ba7f163c4a11628f55a4df523b3ef84604051611b989190611d8b565b60405180910390a3611bac83600084611bb6565b505050565b505050565b505050565b600081519050919050565b600082825260208201905092915050565b60005b83811015611bf5578082015181840152602081019050611bda565b60008484015250505050565b6000601f19601f8301169050919050565b6000611c1d82611bbb565b611c278185611bc6565b9350611c37818560208601611bd7565b611c4081611c01565b840191505092915050565b60006020820190508181036000830152611c658184611c12565b905092915050565b600080fd5b600073ffffffffffffffffffffffffffffffffffffffff82169050919050565b6000611c9d82611c72565b9050919050565b611cad81611c92565b8114611cb857600080fd5b50565b600081359050611cca81611ca4565b92915050565b6000819050919050565b611ce381611cd0565b8114611cee57600080fd5b50565b600081359050611d0081611cda565b92915050565b60008060408385031215611d1d57611d1c611c6d565b5b6000611d2b85828601611cbb565b9250506020611d3c85828601611cf1565b9150509250929050565b60008115159050919050565b611d5b81611d46565b82525050565b6000602082019050611d766000830184611d52565b92915050565b611d8581611cd0565b82525050565b6000602082019050611da06000830184611d7c565b92915050565b600080600060608486031215611dbf57611dbe611c6d565b5b6000611dcd86828701611cbb565b9350506020611dde86828701611cbb565b9250506040611def86828701611cf1565b9150509250925092565b600060ff82169050919050565b611e0f81611df9565b82525050565b6000602082019050611e2a6000830184611e06565b92915050565b60008060408385031215611e4757611e46611c6d565b5b6000611e5585828601611cf1565b9250506020611e6685828601611cbb565b9150509250929050565b600060208284031215611e8657611e85611c6d565b5b6000611e9484828501611cf1565b91505092915050565b600060208284031215611eb357611eb2611c6d565b5b6000611ec184828501611cbb565b91505092915050565b611ed381611c92565b82525050565b6000602082019050611eee6000830184611eca565b92915050565b6000604082019050611f096000830185611d7c565b611f166020830184611d7c565b9392505050565b60008060408385031215611f3457611f33611c6d565b5b6000611f4285828601611cbb565b9250506020611f5385828601611cbb565b9150509250929050565b60008060408385031215611f7457611f73611c6d565b5b6000611f8285828601611cf1565b9250506020611f9385828601611cf1565b9150509250929050565b600080600060608486031215611fb657611fb5611c6d565b5b6000611fc486828701611cf1565b9350506020611fd586828701611cf1565b9250506040611fe686828701611cbb565b9150509250925092565b7f4e487b7100000000000000000000000000000000000000000000000000000000600052602260045260246000fd5b6000600282049050600182168061203757607f821691505b60208210810361204a57612049611ff0565b5b50919050565b7f4e487b7100000000000000000000000000000000000000000000000000000000600052601160045260246000fd5b600061208a82611cd0565b915061209583611cd0565b92508282019050808211156120ad576120ac612050565b5b92915050565b60006060820190506120c86000830186611eca565b6120d56020830185611eca565b6120e26040830184611d7c565b949350505050565b6120f381611d46565b81146120fe57600080fd5b50565b600081519050612110816120ea565b92915050565b60006020828403121561212c5761212b611c6d565b5b600061213a84828501612101565b91505092915050565b600061214e82611cd0565b915061215983611cd0565b925082820390508181111561217157612170612050565b5b92915050565b600061218282611cd0565b915061218d83611cd0565b925082820261219b81611cd0565b915082820484148315176121b2576121b1612050565b5b5092915050565b7f4e487b7100000000000000000000000000000000000000000000000000000000600052601260045260246000fd5b60006121f382611cd0565b91506121fe83611cd0565b92508261220e5761220d6121b9565b5b828204905092915050565b7f696e73756666696369656e7420746f6b656e20616d6f756e7400000000000000600082015250565b600061224f601983611bc6565b915061225a82612219565b602082019050919050565b6000602082019050818103600083015261227e81612242565b9050919050565b60008151905061229481611cda565b92915050565b6000602082840312156122b0576122af611c6d565b5b60006122be84828501612285565b91505092915050565b7f746f6b656e536f6c6420697320746f6f20736d616c6c00000000000000000000600082015250565b60006122fd601683611bc6565b9150612308826122c7565b602082019050919050565b6000602082019050818103600083015261232c816122f0565b9050919050565b7f696e76616c696420616d6f756e74000000000000000000000000000000000000600082015250565b6000612369600e83611bc6565b915061237482612333565b602082019050919050565b600060208201905081810360008301526123988161235c565b9050919050565b60006040820190506123b46000830185611eca565b6123c16020830184611d7c565b9392505050565b7f45524332303a2064656372656173656420616c6c6f77616e63652062656c6f7760008201527f207a65726f000000000000000000000000000000000000000000000000000000602082015250565b6000612424602583611bc6565b915061242f826123c8565b604082019050919050565b6000602082019050818103600083015261245381612417565b9050919050565b7f657468536f6c6420697320746f6f20736d616c6c000000000000000000000000600082015250565b6000612490601483611bc6565b915061249b8261245a565b602082019050919050565b600060208201905081810360008301526124bf81612483565b9050919050565b7f696e73756666696369656e74206f757470757420616d6f756e74000000000000600082015250565b60006124fc601a83611bc6565b9150612507826124c6565b602082019050919050565b6000602082019050818103600083015261252b816124ef565b9050919050565b60008151905061254181611ca4565b92915050565b60006020828403121561255d5761255c611c6d565b5b600061256b84828501612532565b91505092915050565b7f696e76616c69642065786368616e676520616464726573730000000000000000600082015250565b60006125aa601883611bc6565b91506125b582612574565b602082019050919050565b600060208201905081810360008301526125d98161259d565b9050919050565b60006040820190506125f56000830185611d7c565b6126026020830184611eca565b9392505050565b7f45524332303a20617070726f76652066726f6d20746865207a65726f2061646460008201527f7265737300000000000000000000000000000000000000000000000000000000602082015250565b6000612665602483611bc6565b915061267082612609565b604082019050919050565b6000602082019050818103600083015261269481612658565b9050919050565b7f45524332303a20617070726f766520746f20746865207a65726f20616464726560008201527f7373000000000000000000000000000000000000000000000000000000000000602082015250565b60006126f7602283611bc6565b91506127028261269b565b604082019050919050565b60006020820190508181036000830152612726816126ea565b9050919050565b7f45524332303a20696e73756666696369656e7420616c6c6f77616e6365000000600082015250565b6000612763601d83611bc6565b915061276e8261272d565b602082019050919050565b6000602082019050818103600083015261279281612756565b9050919050565b7f45524332303a207472616e736665722066726f6d20746865207a65726f20616460008201527f6472657373000000000000000000000000000000000000000000000000000000602082015250565b60006127f5602583611bc6565b915061280082612799565b604082019050919050565b60006020820190508181036000830152612824816127e8565b9050919050565b7f45524332303a207472616e7366657220746f20746865207a65726f206164647260008201527f6573730000000000000000000000000000000000000000000000000000000000602082015250565b6000612887602383611bc6565b91506128928261282b565b604082019050919050565b600060208201905081810360008301526128b68161287a565b9050919050565b7f45524332303a207472616e7366657220616d6f756e742065786365656473206260008201527f616c616e63650000000000000000000000000000000000000000000000000000602082015250565b6000612919602683611bc6565b9150612924826128bd565b604082019050919050565b600060208201905081810360008301526129488161290c565b9050919050565b7f45524332303a206d696e7420746f20746865207a65726f206164647265737300600082015250565b6000612985601f83611bc6565b91506129908261294f565b602082019050919050565b600060208201905081810360008301526129b481612978565b9050919050565b7f696e76616c696420726573657276657300000000000000000000000000000000600082015250565b60006129f1601083611bc6565b91506129fc826129bb565b602082019050919050565b60006020820190508181036000830152612a20816129e4565b9050919050565b7f45524332303a206275726e2066726f6d20746865207a65726f2061646472657360008201527f7300000000000000000000000000000000000000000000000000000000000000602082015250565b6000612a83602183611bc6565b9150612a8e82612a27565b604082019050919050565b60006020820190508181036000830152612ab281612a76565b9050919050565b7f45524332303a206275726e20616d6f756e7420657863656564732062616c616e60008201527f6365000000000000000000000000000000000000000000000000000000000000602082015250565b6000612b15602283611bc6565b9150612b2082612ab9565b604082019050919050565b60006020820190508181036000830152612b4481612b08565b905091905056fea26469706673582212202b32141d84bcfdc28bba433906b3d7ca90c88d8c84ffd887d7b39332b837bde364736f6c63430008120033a2646970667358221220d2639182eabd7f682bc82561cd766810f34753b2eb27c5597a71f433a2ecf92864736f6c63430008120033",
  "linkReferences": {},
  "deployedLinkReferences": {}
}